S01600004652444D2D4B4C32355A2D554152542E6865785F
S113000000300020C10900006109000061090000FE
S113001000000000000000000000000000000000DC
S11300200000000000000000000000006109000062
S113003000000000000000006109000061090000E8
S11300406109000061090000610900006109000004
S113005061090000610900006109000061090000F4
S113006061090000610900006109000061090000E4
S113007061090000610900006109000061090000D4
S113008061090000610900006109000061090000C4
S113009061090000610900006109000061090000B4
S11300A061090000610900006109000061090000A4
S11300B06109000061090000610900006109000094
S1130800002934D00123002210B488422CD30124BF
S11308102407A14204D2814202D209011B01F8E754
S1130820E400A14204D2814202D249005B00F8E70D
S1130830884201D3401A1A434C08A04202D3001B39
S11308405C0822438C08A04202D3001B9C0822436C
S1130850CC08A04202D3001BDC082243002803D0AA
S11308601B0901D00909E3E7101C10BC70470028DC
S113087001D00020C04307B4024802A140180290EE
S113088003BDC046D90000000029F0D003B5FFF72E
S1130890B9FF0EBC4243891A1847C046002941D00B
S11308A010B4041C4C40A44601230022002900D5A6
S11308B04942002800D5404288422CD30124240711
S11308C0A14204D2814202D209011B01F8E7E400EB
S11308D0A14204D2814202D249005B00F8E7884277
S11308E001D3401A1A434C08A04202D3001B5C08EF
S11308F022438C08A04202D3001B9C082243CC084C
S1130900A04202D3001BDC082243002803D01B09A9
S113091001D00909E3E7101C6446002C00D54042CD
S113092010BC7047002806D003DB0020C0434008F9
S113093001E08020000607B4024802A1401802909A
S113094003BDC046190000000029EBD003B5FFF732
S1130950A7FF0EBC4243891A1847C0467047C046D9
S113096080B500AF00BEBD4680BDC04680B500AFB7
S1130970064A0749074BD150074A88235B010021E7
S1130980D15000F09DFCBD4680BDC04600E000E0B3
S113099000000000080D00000070044080B500AFA6
S11309A0054A064BD31A054A101C00211A1C01F0F3
S11309B0C7F8BD4680BDC04638F0FF1F00F0FF1FDA
S11309C001F08EF9FFF7D2FFFFF7E8FF01F060F9BD
S11309D001F0FCF801F092F9044B0020191C00F01E
S11309E019FD031C181C01F08FF8C04600F0FF1F0E
S11309F080B582B000AF7860FEE7C04680B582B0B3
S1130A0000AF786007E07B681B787A6801327A600F
S1130A10181C00F013F87B681B78002BF3D1BD463B
S1130A2002B080BD80B500AF034B181C00F01EFC63
S1130A30031C181CBD4680BD00A0064080B582B0D2
S1130A4000AF021CFB1D1A70044AFB1D1B78101C0E
S1130A50191C00F01FFCBD4602B080BD00A006407A
S1130A6080B500AF1D4A1D491D4BCB58A02149013B
S1130A7019431B4BD1501B4B802252009A641A4BD2
S1130A80194A52688021C9020A435A60164B164A11
S1130A9052698021C9020A435A61124B80225200D2
S1130AA0DA64114B104A5268802109030A435A60E0
S1130AB00D4B0D4A5269802109030A435A610B4BBD
S1130AC0802252005A600A4B02225A60084B084A9C
S1130AD0526902210A435A61BD4680BD0070044038
S1130AE03810000000A0044040F00F4000C0044053
S1130AF0C0F00F4080B586B000AF7860081C111CB0
S1130B001A1CFB1C1870BB1C19707B1C1A70C24B7E
S1130B109B79DBB21A1C0C2313409B080DD1BE4BEE
S1130B209B79DBB21A1C1023134006D0BA4B9B7975
S1130B30DBB21A1C2023134001D0012373E27A682C
S1130B40B64B9A4201DD21236DE2BB1C1B78002BBE
S1130B5009D07A68B24B9A4203DD7A68B14B9A4263
S1130B6001DD22235FE2FB1C1B78002B02D0FB1C5F
S1130B7001221A707B1C1B785BB2002B04DD7B1CEA
S1130B801B785BB2192B01DD41234CE23B1C203363
S1130B901B785BB2172B05DD3B1C20331B785BB243
S1130BA0322B01DD42233EE27B1C1B785BB278686A
S1130BB0191CFFF773FE031C3B613A699A4B9A4276
S1130BC003DD3A69994B9A4201DD43232BE27B1CF6
S1130BD01B785BB27868191CFFF760FE031C3A1C93
S1130BE02032127852B25343FB60FA68904B9A4217
S1130BF003DDFA688F4B9A4201DD452313E2864AEE
S1130C003B1C163352781A703B1C16333A1C1632AE
S1130C1012783C218A431A707A68874B9A4214DC12
S1130C20FB1C1B78DB00DAB2BB1C1B789B00DBB21D
S1130C301343DAB23B1C16331B781343DAB23B1C62
S1130C40163310210A431A7013E0FB1C1B78DB00D7
S1130C50DAB2BB1C1B789B00DBB21343DAB23B1C39
S1130C6016331B781343DAB23B1C163320210A4394
S1130C701A70694B3A1C163212785A707A686F4BA4
S1130C809A4204DC3B1C173300221A7027E07A686E
S1130C906B4B9A4204DC3B1C173301221A701EE092
S1130CA07A68684B9A4204DC3B1C173302221A70A0
S1130CB015E07A68644B9A4204DC3B1C1733032228
S1130CC01A700CE07A68614B9A4204DC3B1C1733BF
S1130CD004221A7003E03B1C173305221A704E4A93
S1130CE03B1C163312781A703B1C16333A1C16320E
S1130CF0117803220A401A703B1C17331B78DB005F
S1130D00DAB238231340DAB23B1C16331B78134390
S1130D10DAB23B1C1633802149420A431A703E4B17
S1130D203A1C163212781A70BB1C1B78002B24D084
S1130D303B1C143300221A800DE0374B9B79DBB245
S1130D401A1C022313400ED13B1C14333A1C1432D8
S1130D50128801321A803B1C143300215A5E3C4B2A
S1130D609A42EADD00E0C0462B4B9B79DBB21A1CA9
S1130D700223134001D1232355E13B1C14330022E9
S1130D801A800DE0244B9B79DBB21A1C102313400C
S1130D900ED03B1C14333A1C1432128801321A80D0
S1130DA03B1C143300215A5E2A4B9A42EADD00E0D0
S1130DB0C046194B9B79DBB21A1C1023134001D097
S1130DC0112330E13B1C143300221A800FE0124B34
S1130DD09B79DBB21A1C0C2313409B08022B0ED008
S1130DE03B1C14333A1C1432128801321A803B1C07
S1130DF0143300215A5E174B9A42E8DD00E0C046E6
S1130E00054B9B79DBB21A1C0C2313409B08022B65
S1130E1022D01A2307E1C0460040064080F0FA02BF
S1130E20BFC62D000048E8017F841E0000093D0074
S1130E30FF6BDC0200E1F50500127A00D01213000A
S1130E40A0252600404B4C0080969800002D3101CF
S1130E501F4E0000CF070000754B754A5279D2B27D
S1130E6020210A43D2B25A71714A3B1C16331279BB
S1130E701A703B1C16333A1C163212781F218A430F
S1130E801A707B1C1B78013BDAB21F231340D9B2C2
S1130E903B1C16333A1C163212780A431A70644B00
S1130EA03A1C163212781A71614A3B1C1633527975
S1130EB01A703B1C16333A1C163212781F218A43CF
S1130EC01A703B1C20331B78183BDAB21F231340E3
S1130ED0DAB23B1C16331B781343DAB23B1C1633CD
S1130EE040210A431A70524B3A1C163212785A7136
S1130EF03B1C143300221A800DE04D4B9B79DBB26E
S1130F001A1C202313400ED13B1C14333A1C1432F8
S1130F10128801321A803B1C143300215A5E454B5F
S1130F209A42EADD00E0C046414B9B79DBB21A1CD1
S1130F302023134001D1162375E03B1C14330022F7
S1130F401A800DE03A4B9B79DBB21A1C4023134004
S1130F500ED13B1C14333A1C1432128801321A800D
S1130F603B1C143300215A5E334B9A42EADD00E005
S1130F70C0462F4B9B79DBB21A1C4023134001D18E
S1130F80442350E02A4B1B79DAB21F231340DAB210
S1130F903B1C0B3301321A70254B5B79DAB21F23E9
S1130FA01340DAB23B1C0A3318321A70204B204A21
S1130FB01278D1B23F220A40D2B21A703B1C1433C9
S1130FC000221A800FE01A4B9B79DBB21A1C0C2307
S1130FD013409B08032B0ED03B1C14333A1C1432D1
S1130FE0128801321A803B1C143300215A5E114BC3
S1130FF09A42E8DD00E0C0460D4B9B79DBB21A1C37
S11310000C2313409B08032B01D01B230BE03B1C38
S11310100B331B787868191CFFF740FC031C3A1C3F
S11310200A3212785343181CBD4606B080BDC04630
S113103000400640CF0700009F0F000080B58EB02F
S113104000AFF860B9607A6000237B6200233B63E1
S11310500023FB6200233B620023BB627D4A7D497F
S11310607D4BCB588021C90019437B4BD1507B4B1E
S11310707A4AD278D2B20C218A43D2B2DA70BA68F0
S1131080774B9A4202DCBB681F2B0EDC0023BB604B
S1131090704A744BD3583B623A6A734B13403B62B9
S11310A06C4A704B396AD150FEE77B68FB61BB68C0
S11310B0FA2292005343BB613B1C373304221A705B
S11310C03B1C37331B78FA695343B869191CFFF783
S11310D097FB031C7B613B1C37331B787A695343B2
S11310E0B869191CFFF78CFB031C7B627A6AFB69E5
S11310F09A4204D97A6AFB69D31A3B6303E0FA691A
S11311007B6AD31A3B633B1C37331B78FB623B1C63
S1131110373305221A7033E03B1C37331B78FA69E6
S11311205343B869191CFFF76BFB031C7B613B1C21
S113113037331B787A695343B869191CFFF760FB8E
S1131140031C7B627A6AFB699A4204D97A6AFB6956
S1131150D31ABB6203E0FA697B6AD31ABB62BA6A28
S11311603B6B9A4205D8BB6A3B633B1C37331B7805
S1131170FB623B1C37333A1C3732127801321A7047
S11311803B1C37331B78202BC6D9FB69181C642100
S1131190FFF736FB031C1A1C131C5B009A183B6BED
S11311A09A4253D9FB6A032B0AD9FB6A082B07D846
S11311B02A4B2A4AD27AD2B202210A43D2B2DA7232
S11311C0264B9B7ADBB23B623B6A1F2293433B6212
S11311D0FB6ADBB2013BDBB21A1C1F2313403A6AE1
S11311E013433B621D4B3A6AD2B29A723A6A1F2386
S11311F0134001333B62FB693A6A5343B869191CD3
S1131200FFF7FEFA031C7B61144B1B78DBB21F2231
S113121093433B62114B7969F82252010A40120A46
S1131220D1B21F220A40D1B23A6AD2B20A43D2B230
S11312301A700A4B7A69D2B25A70084B074AD278AC
S1131240D2B20C210A43D2B2DA7000E0FEE7BD4606
S11312500EB080BD007004403410000000A00640B1
S113126050C3000004100000FFFFFFF380B582B0FC
S113127000AF7860C0467B681B79DBB21A1C202360
S11312801340F8D07B68DB79DBB2181CBD4602B092
S113129080BDC04680B582B000AF78600A1CFB1CDC
S11312A01A70C0467B681B79DBB2DBB25BB2002BE1
S11312B0F8DA7B68FA1C1278DA71BD4602B080BD98
S11312C080B582B002AF3E4A3D493E4BCB58F8212F
S11312D0890119433B4BD150394A3B4B8021490288
S11312E0D1503A4B1822009201220192181C00217D
S11312F001220423FFF7FEFB021C354B1A60344B1A
S11313001B68181CFA239900FFF7C8FA031C1A1C5F
S1131310304B1A602F4B1B681A1C29492A4BCB5897
S11313201B0F0133101C191CFFF76AFA031C1A1C4B
S1131330294B1A60284B1B681A1C2149224BC95897
S1131340E023DB020B401B0C0133101C191CFFF7BC
S113135057FA031C1A1C214B1A60194A1849204BCE
S1131360CB588021490219431D4BD1501D4B80227B
S113137092005A601B4B802292009A60104A1049D6
S1131380174BCB588021C9041943154BD150104B2E
S11313901B68181CFA23D900FFF780FA031C1A1CD7
S11313A0114B1A60104B1A68104996239B01081CB4
S11313B0111C1A1CFFF742FEFFF752FBBD4680BD0D
S11313C000700440381000004410000000127A003D
S11313D01CF0FF1F30F0FF1F20F0FF1F24F0FF1F41
S11313E0041000000090044028F0FF1F00A00640F5
S11313F080B584B000AF78600023FB6002E0FB6836
S11314000133FB60FA687B689A42F8DBBD4604B09E
S113141080BDC04690B587B000AFDB4ADB4B80216E
S11314200901D150DA4B802252001A60D84B802235
S113143052005A60D64B802252009A60D44B8022CC
S11314405200DA60D24B802252001A61D04B8022C3
S113145052005A61CE4B802252009A61CC4B8022BA
S11314605200DA61CA4B802252001A62C84B8022B1
S113147052005A62C74B012252425A6100233B6117
S11314803B1C163300221A70C34BFB60C34BBB607A
S1131490FB1D00221A70BB1D00221A707B1D002246
S11314A01A70BF4B181CFFF7A9FA3B69012B07D12F
S11314B0BC4BBC4A9278D2B203210A43D2B29A708E
S11314C03B1C153300221A703B1C143300221A7083
S11314D023E03C1C1734FFF7A5FA031C23703B1CC4
S11314E017331B78C42B09D03B1C17331B78E62B0E
S11314F004D03B1C17331B78262B04D13B1C16331A
S113150001221A7009E0A84B181CFFF777FA3B1C5C
S113151016333A1C163212781A703B1C16331B7899
S1131520002BD6D03B1C163300221A709F4B181C7C
S1131530FFF764FA9E4B181CFFF760FA3C1DFFF797
S113154071FA031C23709B4B181CFFF757FAFC1C01
S1131550FFF768FA031C2370BB1C391C17313A1DB2
S1131560097812784A401A70BB1C1B78181CFFF7C4
S113157065FA914B181CFFF741FABB1C1B78803BA2
S1131580DBB2181CFFF75AFABB1C1A78FB1C1B7839
S11315905A407F23134000D095E13B1C17331B783E
S11315A0C42B04D0E62B07D0262B54D086E1834BE2
S11315B0181CFFF723FA8AE1814B181CFFF71EFA67
S11315C07B1C3A1D117807220A401A707B1C1B7879
S11315D0072B3AD89A007B4BD3181B689F463B1CB9
S11315E015330D221A70784B181CFFF707FA31E0F7
S11315F03B1C15330B221A70744B181CFFF7FEF9B1
S113160028E03B1C153309221A70714B181CFFF794
S1131610F5F91FE03B1C15330C221A706D4B181C96
S1131620FFF7ECF916E03B1C15330A221A706A4BDB
S1131630181CFFF7E3F90DE03B1C153308221A7060
S1131640664B181CFFF7DAF904E03B1C1533002243
S11316501A70C0463BE1624B181CFFF7CFF97B1CA4
S11316603A1D117807220A401A707B1C1B78062B3E
S113167000D918E19A005B4BD3181B689F463B1CAA
S1131680153301221A703B1D1A7860231340402B36
S11316901AD004DC002B05D0202B0CD026E0602BC4
S11316A01BD023E03B1C143303221A704E4B181C2E
S11316B0FFF7A4F91BE03B1C143302221A704B4BB6
S11316C0181CFFF79BF912E03B1C143301221A701B
S11316D0474B181CFFF792F909E03B1C1433042212
S11316E01A70444B181CFFF789F900E0C046E3E088
S11316F03B1C153302221A703F4B181CFFF77EF96E
S1131700DAE03B1C153303221A703C4B181CFFF71C
S113171075F9D1E03B1C153304221A703B1D1A786D
S113172018231340082B11D002DC002B05D028E02D
S1131730102B14D0182B1BD023E03B1C1433032292
S11317401A702F4B181CFFF759F91BE03B1C14337C
S113175002221A702B4B181CFFF750F912E03B1CA5
S1131760143301221A70284B181CFFF747F909E0BB
S11317703B1C143304221A70244B181CFFF73EF947
S113178000E0C04698E0C0460070044038100000F5
S113179000B0044080F00F4060E31600808D5B00D1
S11317A0001D000000A00640201D0000381D0000A0
S11317B0441D00005C1D0000741D00007C1D000021
S11317C0A41D00009C1F0000CC1D0000E01D0000B3
S11317D0F41D0000041E0000141E0000241E00005E
S11317E0341E0000BC1F0000581E00006C1E0000C8
S11317F0801E0000941E0000A81E0000B41E0000FD
S1131800C01E0000D41E0000E81E0000FC1E0000E4
S11318103B1C153305221A703B1D1A7818231340FC
S1131820082B11D002DC002B05D028E0102B14D09B
S1131830182B1BD023E03B1C143303221A70A84B33
S1131840181CFFF7DBF81BE03B1C143302221A7050
S1131850A44B181CFFF7D2F812E03B1C14330122EE
S11318601A70A14B181CFFF7C9F809E03B1C14338C
S113187004221A709D4B181CFFF7C0F800E0C04604
S11318801AE03B1C153306221A70994B181CFFF7FB
S1131890B5F811E03B1C153307221A70954B181C40
S11318A0FFF7ACF808E03B1C153300221A70924B8A
S11318B0181CFFF7A3F8C046C04608E03B1C1533CC
S11318C000221A7003E08D4B181CFFF797F83B1C9D
S11318D014331B78022B23D002DC012B2ED03BE0E7
S11318E0032B0FD0042B37D1854B854A1268102166
S11318F00A431A60FB68181CFFF77AFD804B00222C
S11319001A602AE07E4B7E4A126810210A431A604C
S1131910BB68181CFFF76CFD794B00221A601CE0B1
S1131920774B774A126820210A431A60FB68181C17
S1131930FFF75EFD724B00221A600EE0704B704A96
S1131940126820210A431A60BB68181CFFF750FD77
S11319506B4B00221A6000E0C0463B1C15331B7819
S11319600D2B00D9BAE09A00664BD3181B689F462A
S1131970634B634A126801210A431A60FB68181C0E
S1131980FFF736FD5E4B00221A60A8E05C4B5C4A10
S1131990126801210A431A60BB68181CFFF728FD6E
S11319A0574B00221A609AE0554B554A126802219F
S11319B00A431A60FB68181CFFF71AFD504B0022FB
S11319C01A608CE04E4B4E4A126804210A431A6096
S11319D0FB68181CFFF70CFD494B00221A607EE0DF
S11319E0474B474A126808210A431A60FB68181CCF
S11319F0FFF7FEFC424B00221A6070E0404B404A65
S1131A00126804210A431A60BB68181CFFF7F0FC33
S1131A103B4B00221A6062E0394B394A12680821B4
S1131A200A431A60BB68181CFFF7E2FC344B00221F
S1131A301A6054E0324B324A126840210A431A6059
S1131A40FB68181CFFF7D4FC2D4B00221A6046E0FB
S1131A502B4B2B4A126840210A431A60BB68181C9E
S1131A60FFF7C6FC264B00221A6038E0244B244AB8
S1131A70126840210A431A60FB68181CFFF7B8FC7F
S1131A801F4B00221A602AE01D4B1D4A1268402198
S1131A900A431A60BB68181CFFF7AAFC184B002203
S1131AA01A601CE0164B164A126840210A431A6059
S1131AB0FB68181CFFF79CFC114B00221A600EE017
S1131AC00F4B0F4A126840210A431A60BB68181C66
S1131AD0FFF78EFC0A4B00221A6000E0C046EFE4D8
S1131AE00C1F0000201F0000341F0000481F0000CE
S1131AF0581F0000641F0000701F0000841F0000B6
S1131B0080F00F40D81F000038B5051C00F0DAF84B
S1131B1000F080F8084C2368002B02D0984700207E
S1131B202060064C2168002902D0884700222260E8
S1131B30281CFEF75DFF38BD04F0FF1F08F0FF1FEF
S1131B4010B5041C00F002F8201C10BD30B5C9B259
S1131B50031C1F2A31D944420323234005D0D21A3F
S1131B60C51801700130A842FBD1002905D00D062B
S1131B700C042C430B02214319435409031C002C6D
S1131B800ED0251C013D196059609960D960196116
S1131B9059619961D9612033002DF3D16301C318D0
S1131BA0D006400F07D0041C1D1C013C02C5002CAC
S1131BB0FBD180001B18032422409D18002A03D067
S1131BC019700133AB42FBD130BD000010B50B4C92
S1131BD00B4B9C4202D001CC8047F9E7094C0A48E0
S1131BE0844202D008CC9847F9E7084C08498C4253
S1131BF002D004CC9047F9E710BDC0461020000085
S1131C001020000010200000102000001020000010
S1131C101020000010B5084C084B9C4202D004CCA4
S1131C209047F9E7064C0748844203D0043C2168F6
S1131C308847F8E710BDC0461020000010200000BF
S1131C40102000001020000000B588421FD0002A98
S1131C501DD00323194207D1184205D19A4203D952
S1131C6008C9043A08C0F2E70123194209D118420D
S1131C7007D19A4205D90B88023A03800231023017
S1131C80E5E70B78013A037001310130DFE700BD6D
S1131C9038B50B4D002D11D000242B1919680029DB
S1131CA006D02B1958689A68FFF7CEFF0C34F4E776
S1131CB05A68002AF5D198680028F2D138BDC04688
S1131CC010200000054B10B51C68002C04D0A0683F
S1131CD0616888472468F8E710BDC04618F0FF1F04
S1131CE0054B181C002805D0854681B00020C04350
S1131CF0009001B0F746704700300020F746704767
S1131D000D0A434F4E54524F4C45532044452052E4
S1131D104550524F445543544F52204F4E0D0A00E4
S1131D200D0A4D454E53414A45204E4F2056414CD5
S1131D3049444F0D0A0000000D0A56414C49444FD6
S1131D400D0A00000D0A206573706572616E646F80
S1131D50203220627974650D0A0000000D0A696E54
S1131D60677265736520636865636B73756D0D0ACF
S1131D70000000000D0A0D0A000000000D0A616851
S1131D806F72697461206E6F206A6F76656E2C20A5
S1131D90736F6C6F20686179203120616C62756D9E
S1131DA00D0A00000D0A656E7472616D6F73206117
S1131DB020636F6D616E646F206465206563756177
S1131DC06C697A61646F7265730D00000D0A616756
S1131DD075646F735F6D656E6F730D0A00000000AC
S1131DE00D0A6D6564696F735F6D656E6F730D0ABF
S1131DF0000000000D0A62616A6F735F6D656E6FAB
S1131E00730D0A000D0A616775646F735F6D61730A
S1131E100D0A00000D0A6D6564696F735F6D61736F
S1131E200D0A00000D0A62616A6F735F6D61730DC4
S1131E300A0000000D0A656E7472616D6F73206193
S1131E4020636F6D616E646F20646520626F746FD0
S1131E506E65730D000000000D0A504C415920635B
S1131E606F6E203530306D730D0A00000D0A504C32
S1131E70415920636F6E203230306D730D0A0000BB
S1131E800D0A504C415920636F6E203130306D7310
S1131E900D0A00000D0A504C415920636F6E203129
S1131EA07365670D0A0000000D0A50415553450D36
S1131EB00A0000000D0A53544F500D0A00000000A0
S1131EC00D0A465720636F6E203530306D730D0A4E
S1131ED0000000000D0A465720636F6E2032303038
S1131EE06D730D0A000000000D0A465720636F6EE3
S1131EF0203130306D730D0A000000000D0A465782
S1131F0020636F6E20317365670D0A000D0A525706
S1131F1020636F6E203530306D730D0A00000000B1
S1131F200D0A525720636F6E203230306D730D0AE4
S1131F30000000000D0A525720636F6E20313030CC
S1131F406D730D0A000000000D0A525720636F6E76
S1131F5020317365670D0A000D0A534B49500D0A71
S1131F60000000000D0A505245564945570D0A001D
S1131F700D0A4E414441204445204E4144410D0A3E
S1131F80000000000D0A436865636B73756D20697A
S1131F906E76616C69646F0D0A000000DE15000046
S1131FA0F01500004A160000021600001416000086
S1131FB0261600004A160000381600007E1600009F
S1131FC0F01600000217000014170000101800009B
S1131FD08218000094180000DC1A00007019000038
S1131FE08C190000A8190000C4190000E0190000B1
S1131FF0FC190000181A0000501A0000341A0000DE
S1132000881A00006C1A0000C01A0000A41A00000C
S11320101020000000F0FF1F00000000000000007E
S10B20200000000000000000B4
S90309C132
